:020000040800F2
:1000000020060020B5350008ED300008EF3000086C
:10001000F1300008F3300008F5300008000000005F
:10002000000000000000000000000000F7300008A1
:10003000F930000800000000FB300008FD30000827
:10004000D1350008D5350008D9350008DD35000860
:10005000E1350008E5350008A7310008E93500085A
:10006000ED350008F1350008F5350008F9350008D0
:10007000FD3500080136000805360008093600087D
:100080000D360008113600085D31000815360008ED
:10009000193600081D3600082136000825360008EC
:1000A000293600082D36000831360008353600089C
:1000B000393600083D3600080000000041360008CF
:1000C0004536000800000000000000004936000826
:1000D000000000004D360008513600085536000873
:1000E000593600085D3600080000000000000000DE
:1000F0000000000000000000000000000000000000
:1001000000000000000000000000000000000000EF
:10011000000000000000000061360008653600089D
:1001200000000000000000000000000000000000CF
:1001300000000000000000000000000000000000BF
:10014000693600086D360008000000006F320008B4
:100150004332000871360008753600087936000809
:100160007D36000881360008000000000000000015
:10017000000000000000000000000000000000007F
:1001800000000000853600082DE9F0472DED088BB2
:10019000DFF8C85B9FEDDF8B002400F014FA05F157
:1001A0001C0001F036F8286ADFF8B41BB0FBF1F050
:1001B000401EB0F1807F09D2DFF8A81BDFF8A82B22
:1001C0004860F02010708C60072008600020687084
:1001D00001F0AEF9012001F0ABF9022001F0A8F91D
:1001E000032001F0A5F90121204601F0D1F92046B4
:1001F00001F01DFA01281DD141F658360DE000F03E
:1002000011FE304600F0D1FF00F018FE00F00DFEA8
:10021000304600F0CAFF00F00EFE002001F007FAA1
:100220000128ECD000F00AFE00F005FE0120A880B5
:1002300000F0B4FB00F0D5F900F036FB42F2107983
:100240009FEDBE9B9FEDBFBA40F2712ADFF8106EA2
:10025000DFF8108EDFF8107E2FE000F091F901201A
:100260002870C6F800A0002000F0ADF9687001F019
:100270007DF900F08BF900F0F3FD00F0D6FD00F001
:1002800085F900F0D8FD00F0CDFD00F07FF900F019
:10029000D5FD00F0C4FD00F079F900F0C9FD0120A2
:1002A000E8704021404601F054FA286F4008286762
:1002B000012804BF49F640402867A87830B10228D9
:1002C0005BD0CAD3032800F0F980F6E700F058F9B4
:1002D00000F0C6FD00F0ACFD00F0ADFD00F0AEFD9D
:1002E00000F06BF91CE000F09DFD00F0B9FD00F09E
:1002F0005EF900F039F9DFF8741D01F0F7FC00F049
:1003000050F951EC1A0B0022DFF83C3E01F062FD7F
:1003100006D800F058F900F091FD484600F045FF7E
:10032000002001F084F9012804BF28780128DAD0E0
:10033000002001F07CF9012804BF28780028BCD1F6
:1003400000F07CFD00F089FD00F031F900F00CF9BF
:10035000DFF8F81D01F0CAFC00F023F951EC1A0B8C
:100360000022002301F04EFDE2D89FED77AB00F0B4
:1003700077FD484600F019FFDAE700F029F900F0B0
:1003800057FD00F058FD00F059FD00F016F900206F
:10039000687001F0EBF800F051FD5020A8600122D8
:1003A0002820E8604FF4003100202861A020686117
:1003B0007820A8610020B865F86538667866B86668
:1003C00085ED1DBA404601F0E2F985ED1DBA2DE03C
:1003D00095ED1D0ADFEDC90A00F0A0F806DB05EB7C
:1003E00080018A68521C00F0B3F8F8D300F09CF842
:1003F00053EC192B01F01EFD01F0EEFD01F034FE6F
:1004000041EC100B01F090FE51EC100B01F0E4FDFB
:1004100000F0BFF8686F01F027FEDFF8B82DDFF8B5
:10042000B83D01F063FC01F0D7FD686795ED1D0A4A
:10043000B5EE400AF1EE10FA02DB68780028C7D06A
:1004400000F0F0FC00F00CFD00206867DFEDAC0A66
:1004500095ED1D0A00F062F85BD56878002858D148
:1004600095ED1D0ADFEDA70A00F058F806DB05EB55
:1004700080018A68521E00F06BF8F8D300F054F83F
:1004800053EC192B01F0D6FC01F0A6FD01F0ECFDB8
:1004900041EC100B01F048FE51EC100B01F09CFDFB
:1004A00000F077F8686F01F0DFFDDFF8282DDFF846
:1004B0002C3D01F01BFC01F08FFDC6E700F060F859
:1004C00000F086F800F0BAFC24B100F0A8FC00F0BF
:1004D000B2FC03E000F0ACFC00F0A7FC00F06DF80B
:1004E0000020687030604FF4FA6000F05EFE24B1C6
:1004F00000F09EFC00F099FC03E000F090FC00F09E
:100500009AFCC6F800A04FF4FA5000F04EFE84F0BA
:100510000104D2E60000000000888340B4EE600AC7
:10052000F1EE10FA7047000095ED1D0ADFEDD90AD3
:1005300080EE200A10EE100A01F096BD9A99999962
:100540009999F13F00401C440000000000000000A9
:100550008A60110340F6E442B1FBF2F107EB80023E
:10056000401C91650528704700EE100ABDEEC00AD8
:1005700010EE100A80B2306053EC1A2B0020704746
:1005800000224FF40031404601F001B9286F00F01D
:100590000CBE00EE100ABCEEC00A10EE100A00F00D
:1005A00004BE41EC1A0B4FF47A7000F0FEBD00203F
:1005B000687051EC1A0B01F00FBD0020E87040216B
:1005C000404601F0C9B8B0EE48AAF0EE68AA7047FC
:1005D00001202870B0EE48AAF0EE68AA002000F0D2
:1005E000CEBF30B597B0002040F6E443DFF8784A3C
:1005F00004EB8001401C8A6D1203B2FBF3F28A65A2
:100600000528F5DB0121012000F05AFFDFF8D05B5F
:10061000284601F091FDDFF8CC0B0B900BA904F1FB
:1006200058000C9010200D900520ADF838000020E7
:100630000F90802010904FF4007011904FF40060E4
:100640001290202013904FF4005014900020159029
:10065000284601F0BEFD0121284601F0D5FD01210B
:100660004FF0005000F03EFFDFF87C5B284601F0C1
:10067000F1FD0020009000AA0220039000200190CC
:1006800002900146284601F001FE01220021284681
:1006900001F00EFEA26D92B20021284601F013FE79
:1006A0000121084600F015FF00F05CF901202060F0
:1006B0002146032020710020E071DFF8300B01F0AB
:1006C0000FFE0C2001F05AFE0020059004A94020E6
:1006D00004900020069008904FF4403009900020CC
:1006E0000A9007900C2001F04DFE01210C2001F032
:1006F0005EFE00F009F817B030BD000067461744F1
:1007000001401C440140174430B5DFF85C49DFF874
:10071000DC5A4FF48050206093B0022020712146B3
:1007200000F025F90D220C21284601F015FE4FF4AA
:10073000805000F0C0FE00F06BFBDFF82859012369
:100740004FF4801200F0ACF801234FF4803200F037
:10075000A7F801234FF4003200F0A2F801234FF470
:10076000802200F09DF801234FF4002200F098F859
:100770000C21284600F0D4FF4FF48031284601F0C8
:1007800028F80028F8D00020A06104F11803042004
:10079000E06110224FF48000206202210420606298
:1007A0000020A062E0622063606300F0C2FC0020D1
:1007B0006064A064E0632064A0632065606504F168
:1007C00038024FF40010E0640221284601F021F8BD
:1007D00000F0D6F840F666600090012200F05CF868
:1007E00000F0CEF841F6CD400090022200F054F81F
:1007F00000F0C6F842F633300090042200F04CF8C6
:1008000000F0BEF843F69A100090082200F044F879
:100810004FF4904000F0A0F8022100F098F8012079
:100820000E900EAA00200F9010900221202012900E
:10083000284601F0ADF80220079007A90C20089087
:10084000002009904FF480600A9001200B9040F244
:1008500071200C900D90284601F07CF8102128465C
:1008600000F077FF0121284601F0C1F84FF4002184
:10087000284600F06CFFDFF878190120086043205B
:1008800000F016FC01224FF40031284600F07FFFF3
:1008900013B030BD0000C8420221284600F0E6BF78
:1008A0000221284600F09DBF30B597B000F05AF8FD
:1008B000DFF8B447DFF834594FF480402060214618
:1008C0000220207100F053F80D220E21284601F07D
:1008D00043FD00200F90042010900820119000206C
:1008E000129013901490159016900FABDFF8745778
:1008F00010220321284601F00BF800200A900B90EB
:100900000890099007900D900E9007AA4FF4800070
:100910000C900321284600F07CFF4FF4106000F09B
:100920001BF8032100F013F800F02AF8A0890090CA
:1009300001220321FFF7B1FF4021284600F009FF03
:100940004FF48011284600F002FF17B030BD082098
:100950000690284600F0A2BE039003AA002004904F
:100960000590704701214FF4802000F0A9BD0020C0
:10097000A071032060710020E071284601F0B0BC36
:1009800000200190029000AB7047BDEEC00A10EE4F
:10099000100ADFF8CC1680B2086070472DE9F04FDE
:1009A00040F6C414A1B0A0464FF4805000F083FD7F
:1009B00000F02EFA0121012000F08BFD01214FF4FF
:1009C000602000F07DFDDFF8A0660020F071314668
:1009D00003207071022030710020B0714FF47060FC
:1009E00030604FF0904001F07BFC0121002000F0CE
:1009F000CFFD0D22082100F0CAF90D22092100F0D7
:100A0000C6F90D220A2100F0C2F90D220B2100F0D7
:100A1000BEF9DFF850B60C21584600F081FE4FF4C5
:100A20008031584600F0D5FE0028F8D00020109004
:100A300010AB042011900122082012900021002008
:100A400013901490159016901790584600F060FF80
:100A500010AB04220121584600F05AFF4FF4807079
:100A6000706406F138020020B064F0633064B06353
:100A700030657065F0640146584600F0CAFE06F124
:100A800038020121584600F0C4FE00F0E0F940F2BF
:100A900013100890002100F0D4F940F23340049084
:100AA000584600F036FF00F0D2F94B2008900121A3
:100AB00000F0C7F940F2C9400490584600F029FF01
:100AC00000201E901B90189018AB4FF000601C90F7
:100AD0000CAA4FF000501F9000201A9019901D9002
:100AE0000146584600F0E1FD18AB0CAA012158461A
:100AF00000F0DBFD4FF490400C900CAA0A200D9002
:100B0000002100200E9008200F90584600F0C6FDEE
:100B10000020019001460294009400AB012200F0F5
:100B200033F90020019000AB40F6B83002900090FD
:100B3000022200F028F90020019000AB00F057F9E4
:100B40000290082200F053F9009000F01CF90CAA62
:100B50000121584600F0A2FD0020019000AB4FF4A7
:100B60007A70029000900222012100F00DF94420D9
:100B700030720020B07270720120F07206F108002D
:100B800001F022FC012310220021584600F0E7FD6D
:100B9000012100F029F9022100F026F9042100F0DA
:100BA00023F9082100F020F900F08CFA00F071F927
:100BB00042F2107400F031F9002740F6E44541F2AA
:100BC0009419706F484502D20121002006E00021EF
:100BD00041F27D5290428041C043C00F084321D072
:100BE00000F04EFAF06EF1894843318AB0FBF1F023
:100BF000F06640F6FF71F06E6843B0FBF1F040F232
:100C0000F11148436421B0FBF1F07F1C7067642F41
:100C1000D7D300F004F900F000F900F009F900F072
:100C2000FCF8F6E700F001F9C6F880400220B08237
:100C30000120F08200F0F1F800F022FA44F20C6A90
:100C400000F094F82CD000F0A6F805D308F10A08BB
:100C5000D04508D3D04606E0A8F10A08B8F5FA7FD7
:100C600098BF4FF4FA7800F0CCF8322000F09DFAEB
:100C700000F006FA00F0F7F8E2D000F0DCF800F03F
:100C8000ECF800F0CAF800F0EBF800F0C6F8F6E770
:100C900000F0C8F800F0C1F800F0D0F800F0BDF89E
:100CA000708A0028F4D0002070824FF4FA60C6F8F1
:100CB00080000120B082F082FFF775FC002700F071
:100CC000B1F800F0B8F800F051F82CD000F063F85B
:100CD00005D308F10A08D04508D3D04606E0A8F1AC
:100CE0000A08B8F5FA7F98BF4FF4FA7800F089F84F
:100CF000322000F05AFA00F0C3F900F0B4F8E2D064
:100D000000F09CF800F0A9F800F087F800F0A5F8D2
:100D100000F083F8F6E700F088F800F07EF800F0C5
:100D20008AF800F07AF8708A0028F4D000F095F87C
:100D300000F075F800F079F800F074F843F69824A4
:100D400000F06BF800F08CF800F072F800F073F827
:100D500000F074F800F061F8E8E7000004010020FA
:100D6000A086010010E000E023ED00E0D6F880004E
:100D7000B16F421F91429241431D8B428941C90F7D
:100D800051EAD27170470021584600F06FBD4FF014
:100D9000904001F0E1BA318AF289F36E5343B3FB1C
:100DA000F1F3F366336F5A43B2FBF1F1316740F66A
:100DB000FF72F16E6943B1FBF2F1716740F6FF73A8
:100DC000326F6A43B2FBF3F240F2F11359436423EA
:100DD000B1FBF3F17167B26740F2F7115143B1FB18
:100DE000F3F1B16788427047584600F0B2BC96ED07
:100DF0001F0ABCEEC00A10EE100A604300F5FA703C
:100E000070477F1C434601220021584600F06ABD0E
:100E100001214FF0005000F05CBB2046C5E10120ED
:100E200000F0A4BB032000F0A1BB022000F09EBB99
:100E3000012000F0A4BB022000F0A1BB032000F0C1
:100E40009EBB0020039006900590079070470020FD
:100E50000A9009900B9003AA7047002000F086BB0F
:100E6000002000F08CBB42F2117087428041716F0C
:100E7000C043494502D20122002106E0002241F28E
:100E80007D5399428941C943C90F42EAD070084352
:100E9000704730B583B04FF4887000F003FB012138
:100EA0004FF0805000F00CFB6F4C022000F0F6F881
:100EB000D04D284601F0D7FA082000F0EFF8284678
:100EC00001F0D1FA01214FF0A04001F03AFB0A20D5
:100ED00000F06BF900214FF0A04001F024FB4FF02F
:100EE000A04001F018FB4FF0A04001F024FB0028C7
:100EF000F9D14FF0A04001F013FB286505F1200166
:100F0000BD480068E081002028624FF440306862EC
:100F1000002000F0ADF8002028606860A860E8605C
:100F200028616861A8612946012028774FF0A04018
:100F300001F07EFA01214FF0A04001F00FFB0523E4
:100F4000012212214FF0A04001F019FB00F0A1F89E
:100F500000F09AF80028FBD0642000F026F94FF04A
:100F6000A04001F065FB04214FF0A04001F0AEFB72
:100F70000028F8D04FF0A04001F064FB20824FF031
:100F8000A04001F05AFB0128F9D000214FF0A04009
:100F900001F0B8FA4FF0A04001F0D0FA0128F9D0E2
:100FA00001214FF0A04001F098FB642000F0FDF813
:100FB0000520286205F120010020686200F058F841
:100FC00000202860686029464FF41070A8604FF434
:100FD0008060E860002028616861A8614FF0A0404F
:100FE00001F026FA05F1340001F05DFA242068636F
:100FF00005F134014020A8630220286404206864BD
:10100000022085F83C004FF0A04001F037FA03229F
:1010100002214FF0A04001F018FB042204214FF000
:10102000A04001F012FB122000F042F80122402102
:101030004FF0A04001F042FB00F02BF800F024F844
:101040000028FBD04FF40030009000AA4FF48040FD
:1010500001900221034800F09CFC00F011F837BD1C
:10106000A877014000740140000000200000F03F1C
:10107000A862E86285F830004FF0A04001F01DBA88
:101080004FF0A04001F002BB01214FF0A04001F061
:101090001DBB01214FF0A04001F034BA2060214671
:1010A000032020710020E0714FF0904001F018B94A
:1010B00020720020A07260720120E07204F108002A
:1010C00001F082B938B500F04FF800F035F808208B
:1010D000206200F065F800F040F800F039F800F008
:1010E0001FF80822012111E038B500F03DF800F0AA
:1010F00023F84FF48050206200F02AF800F02DF819
:1011000000F015F800F00CF80122002100F011F8B1
:101110004FF4C021284600F01AFB0020E08231BDC8
:101120000420E06104F118030020206270470222CD
:101130000021284600F0ECBB304C314D0420E0612A
:1011400004F1180370470000008883400000F0BFDE
:1011500004220121284600F0DBBB0020E06104F1FD
:10116000180304202062704738B5244C244D002019
:10117000E061206204F1180300F012F804F1180392
:10118000FFF7D5FF04F11803FFF7E2FF04F118039E
:10119000284601B0BDE830400822012100F0B8BB6C
:1011A00001220021284600F0B3BB01B41548009984
:1011B000C1664178012904BF0021C166C16E0029C2
:1011C000FCD101B070470F48C16E11B1C16E491E0C
:1011D000C16670479A9999999999B9BF9999B93FF8
:1011E0005800024020740040007400400004004891
:1011F000A4770140C4010020BAF7FF1F00000020BF
:1012000000740140040100200A600A68104308606D
:101210007047F0B5DFF8F012DFF8F4220C68002315
:1012200004F00C04082C13D10B680C68C3F383433F
:101230009B1CE40303D4DFF8DC42634306E08C6AC2
:1012400004F00F04641CB2FBF4F463431C4600E09A
:10125000144604600D68DFF8C042C5F303152D5D28
:10126000076827FA05FCC0F804C00E68C6F302261A
:10127000365D2CFA06F686600E68C6F3C226365D29
:101280002CFA06FCC0F80CC0D1F828C0CCF3041C22
:101290000CF00F0E04EB4E0E5FEACC6CBEF810E0C3
:1012A00004D5BEF1000F18BFB3FBFEF707618F6ACC
:1012B000C7F3442707F00F0C04EB4C04FF06248A05
:1012C00003D514B1B3FBF4F400E004684461CC6AC4
:1012D000E40654BF144604688461CC6AA40654BF73
:1012E00014460468C461CC6A640654BF144604689A
:1012F00004625C00CF6AFF0505D507689F4204BF02
:10130000AE42274600D0C7684762CF6AFF0405D5C2
:1013100007689F4204BFAE42274600D0C768876275
:10132000CF6ABF0505D507689F4204BFAE42274676
:1013300000D0C768C762CF6A7F0505D507689F429E
:1013400004BFAE42274600D0C7684764CF6A3F0556
:1013500005D507689F4204BFAE42274600D0C76844
:101360008764CF6ABF0405D507689F4204BFAE42B9
:10137000C46401D0C36883644FF40043CC6A14F0A2
:10138000030F08BF846805D0CC6A04F00304012C65
:1013900002D1046804630CE0CC6A04F00304022C5C
:1013A00008BF036305D0CC6A04F00304032C08BF14
:1013B0000263CC6A14F4403F08BF846806D0CC6A4C
:1013C00004F44034B4F5803F02D1046844630EE075
:1013D000CC6A04F44034B4F5003F08BF436306D040
:1013E000CC6A04F44034B4F5403F08BF4263CC6A91
:1013F00014F4402F08BF846806D0CC6A04F440245B
:10140000B4F5802F02D1046884630EE0CC6A04F442
:101410004024B4F5002F08BF836306D0CC6A04F4DF
:101420004024B4F5402F08BF8263CC6A14F4401FF7
:1014300008BF846806D0CC6A04F44014B4F5801F59
:1014400002D10468C4630EE0CC6A04F44014B4F51D
:10145000001F08BFC36306D0CC6A04F44014B4F57F
:10146000401F08BFC263CC6A14F4400F08BF8168F4
:1014700006D0CC6A04F44004B4F5800F02D10168B0
:101480000164F0BDCC6A04F44004B4F5000F01D14E
:101490000364F0BDC96A01F44001B1F5400F08BF13
:1014A0000264F0BD1949020F0A6814BF22F4785291
:1014B00022F4F872A8E619490A6822F48052A3E6D9
:1014C000174A0029116814BF084321EA0000106080
:1014D0007047144A0029116814BF084321EA00002C
:1014E00010607047104A0029116814BF084321EAB0
:1014F0000000106070470D4A0029116814BF0843AE
:1015000021EA000010607047041002402C100240D5
:1015100000127A0000093D007C01002030100240DA
:1015200014100240181002401C100240101002401B
:101530001CB504460FF21C1000F074F80FF20C10EA
:1015400030F81400009000A901208DF8040000205C
:101550008DF8060001208DF8070003208DF80500A6
:10156000384850F8240000F0BBFE13BD0FF2DC0138
:10157000344A31F8101052F82000816170470FF2A0
:10158000CC01304A31F8101052F820000185704724
:1015900030B504460FF2D00085B00D4600F042F899
:1015A00001210120FFF795FF0FF2B80030F8140079
:1015B000039003A900208DF8100002208DF813007D
:1015C000214850F8240000F08BFE012D28D10FF2A5
:1015D000A400215C0FF29800205C01F08DF80FF25E
:1015E0008C0030F81400019000208DF808000820CD
:1015F0008DF8090001208DF80A0001A801F090F88B
:101600000FF27400205C8DF800000F208DF80100AF
:101610008DF8020001208DF8030000A800F0D4FE30
:1016200005B030BD50F824000121FFF749BF0FF28B
:101630003401054A31F8101052F8200000F085BE40
:1016400000000000AC010020BC01002040000001AF
:1016500000028000000004000000040000000400FC
:101660000000040001000000000002000000000073
:101670000000000000000000060050F8041B61B1EB
:1016800050F8042BD30744BFA9F101039A18002393
:1016900042F8043B091FFAD1EFE77047052904BF60
:1016A000114600F0ACB900F0BFB970B50E46044663
:1016B00011461D46052E29D100F0A1F92168D4F864
:1016C000A003AA6920F4803010432A6821F0200189
:1016D00011436A6821F400611143AA6821F4806112
:1016E0001143EA6821F0C06111432A6921F00061C9
:1016F000114389006A69890841EA8201EA6921F097
:10170000005111432160C4F8A00370BD314600F0C0
:101710008BF92A4631462046BDE8704000F0A4B956
:10172000D0F8CC2311F1010F04D122F0020141F0D5
:10173000010104E022F00D02114341F00201C0F862
:10174000CC13704753F821101143016070470268B1
:10175000FAE7C0F894137047C0F89813704738B58B
:10176000D443042908D94D1F10D1C168002B14BFE0
:1017700011432140C16031BD00EBC110002BD0F8F6
:101780008C1014BF11432140C0F88C1031BD002AC9
:10179000D0F8902314BF114322EA0101C0F890133E
:1017A0007047042902D94B1F07D107E000EBC11095
:1017B000D0F888101143C0F8881070478168114331
:1017C0008160704700BFD0F88C231143C0F88C13A0
:1017D0007047D0F888030022084218BF0122104643
:1017E000704738B5D443042908D94D1F10D1C168BA
:1017F000002B14BF11432140C16031BD00EBC1106B
:10180000002BD0F88C1014BF11432140C0F88C106D
:1018100031BDF0B500EBC11000F18003D0F88010AD
:101820009C6E5D6E5E6D494E17683440167906F009
:101830001F06344396683443D66825F480753543D3
:10184000166925F4F05521F0400135433943966976
:10185000D769526921F48021394321F0FC71114389
:10186000C0F880109C665D665E65F0BD10B500EB4B
:10187000C11101F18000012A06D0022A07D0042AF2
:101880001BD0082A1BD010BD1968C16110BD1A6891
:1018900042625A6882B1D1F8804024F44054224315
:1018A000C1F880205968B1F5005F19D05968B1F5C9
:1018B000405F01D19968816210BD1968FBE71A6821
:1018C000C2625A68002AF7D0D1F8804024F440441C
:1018D00044EA8202C1F880205968B1F5005FE5D181
:1018E0009968D2E700EBC11000F19C01012A06D0F3
:1018F000022A07D0042A07D0082A07D07047C0F868
:101900009C3070478B607047CB6070470B617047AD
:10191000FAE000EBC1100E4BD0F8B8101940136874
:1019200041EA8321536819439368194313691943A2
:10193000D3681943536941EA034193691943136A10
:10194000D26919431143C0F8B8107047E0FFFF7F18
:101950000020FF3D10B5D0F8A0230B680C6922F0E1
:1019600002021A434B6822F03C021A438B6822F4AD
:1019700070721A43CB6822F480621A4300F56873D0
:101980005C604C699C608969D960C0F8A02310BD77
:10199000F6E010B5D0F8804300F56073012906D059
:1019A00002290BD0042911D0082916D01CE024F4F8
:1019B000E02114680C435168D96315E024F46011E8
:1019C000146841EAC404516819640DE024F0E07120
:1019D000146841EA84145168596424F06061146801
:1019E00041EA442451689964C0F8804310BDD0F89E
:1019F000A023520841EA4201C0F8A01370470268D0
:101A0000D208D200026002688B681A430260026842
:101A100022F0180202600268CB681A4302600A686A
:101A2000426149688161704700EBC110D0F88010B5
:101A3000C908C900C0F88010D0F880109368194315
:101A4000C0F88010D0F8801021F01801C0F8801084
:101A5000D0F88010D3681943C0F880108030116826
:101A6000416151688161704770B500EBC113D3F8D3
:101A70008050D0F8A043166825F0200535435668FD
:101A800025F400653543966825F480653543D668AE
:101A900025F0C0653543166925F000653543566964
:101AA0002D0156EA1515D66925F40035B6F1005F0B
:101AB00008BF45F4003559B1022915D00ED30429C9
:101AC00018D03EBF24F48011926941EA021416E056
:101AD000926924F4003141EA420410E0926924F44E
:101AE000802141EA82040AE0926924F4002141EA5B
:101AF000C20404E0926924F4001141EA4214C3F8DC
:101B00008050C0F8A04370BD30B500EBC11101F1A9
:101B1000BC000024856A012A14D0022A18D0042AA5
:101B200010D0082A14D0102A0CD0202A10D0402A15
:101B300008D0802A0CD0B2F5807F03D0B2F5007FA8
:101B400006D00AE05A68C1F8BC209968416004E0F8
:101B50001024596881609968C160FE21A14025EA7E
:101B600001011A68DD682A431D692A435D692A4319
:101B70009D69DB692A431A43A2401143816230BD4B
:101B800070B5D0F8B05300F56C7301295C689E689D
:101B900015D0022920D004292DD008293AD01029A7
:101BA00047D0202956D0402961D080296ED0B1F588
:101BB000807F7AD0B1F5007F00F0868070BD136819
:101BC000A90943EA81115368194393681943C0F87E
:101BD000B013126911433AE01368546823439468C0
:101BE00025F47C61234341EA8311C0F8B0131269E4
:101BF00041EA82112BE0136854682343946825F46A
:101C00007C31234341EA0331C0F8B013126941EA41
:101C100002311CE0136854682343946825F47C0166
:101C2000234341EA8341C0F8B013126941EA82417B
:101C30000DE0136854682343946825F07C512343D6
:101C400041EA0361C0F8B013126941EA0261C0F8C9
:101C5000B01370BDD168300941EA00106109146801
:101C600044EA411154689268214311433AE0D16833
:101C7000556826F4707040EA811024F4F861146805
:101C800092682C43224341EA82112BE0D1685568C7
:101C900026F4704040EA013024F4F8311468926868
:101CA0002C43224341EA02311CE0D168556826F4F6
:101CB000701040EA814024F4F801146892682C43C3
:101CC000224341EA82410DE0D168556826F07060F8
:101CD00040EA016024F0F851146892682C432243D2
:101CE00041EA02615960986070BD000070B44FF025
:101CF000004591EA030C44BF6B4000F09FBD00BF5C
:101D0000841A71EB030603D2001BB141121973410F
:101D10004FF4001C1CEB410F34BF7CEB430443E049
:101D20000C0DA4EB1356352E50DC45EAC323DB0A19
:101D300045EAC121C912B6F120050DDD63FA05F6A9
:101D4000EB4086EA0305124218BF45F00105C018B2
:101D500051F100010CD213E062FA06F5F240554051
:101D6000F3415A40B340F3405A408018594107D3D9
:101D700049085FEA30005FEA350528BF45F00105F4
:101D800001F58011420875F1004250F1000041EB6D
:101D9000045170BC4FF4001C1CEB410F38BF70475E
:101DA0000020090D090570471CEB410F10D252EAC3
:101DB00043060BD0BCEB410F05D80C0DAB43661EA0
:101DC000342EB5DD02E0AB438018594170BC70473A
:101DD00070BC70474FF4001C1CEB410F94BF1CEB10
:101DE000430F09E041EA030C50EA4C0C52EA0C0C98
:101DF00003D28B4208BF8242704714BF994290427F
:101E0000704700004FF4001C1CEB410F94BF1CEB0B
:101E1000430F09E041EA030C50EA4C0C52EA0C0C67
:101E200003D2994208BF9042704714BF8B4282424E
:101E300070470000B0B581EA030C0CF0004C40F292
:101E4000FF7515EA11541DBF15EA1357AC42AF4296
:101E500039E0E41923EA455343F48013C90241F001
:101E6000004141EA505EC7021100A7FB02020028B0
:101E70004FF00000EEFB01204FF00001E3FB0721D3
:101E800018BF42F00102401800214941E3FB0E0156
:101E9000A4F580640F0302D252004041494154F13D
:101EA00001046CDD470872F1004250F1000051EB73
:101EB0000451A1F580115CBF41EA0C01B0BD4CEAB0
:101EC00005510020B0BD05EA1357AC4214BFAF4224
:101ED00041E050EA410E1CBF52EA430E02E0614667
:101EE0000020B0BD24423C441BD15FEA070EF6D06F
:101EF000090302BF01460020AEF1140EB1FA81F7CA
:101F0000AEEB070401FA07FE0C37C7F1200100FA17
:101F100007F7C8404EEA000E23EA455343F4801306
:101F2000A2E733F00043B3FA83F704BFB2FA82FEAC
:101F300077440B3FE41BB7F1200E2FBF02FA0EF3DC
:101F4000BB40C7F1200E22FA0EFE38BF43EA0E0353
:101F5000BA40641C82E750EA410E14BF52EA430EB5
:101F60006FF000014FF4001717EB430F8ABF1946BB
:101F700017EB410FB5E74CEA05510020B0BDD4F195
:101F80000104B4F120070FDAC4F12007520828BF7A
:101F900042F0010210FA07F501FA07F7E1BF2A4300
:101FA000E0403843E1400FE0352C98DCC7F12004D5
:101FB00052EA400220FA07F218BF42F0010231FA59
:101FC00007F0A1400A43002172F1004250F10000E5
:101FD00051EB0C01B0BD00004FEAF17CBCF1E04CCC
:101FE0002CBFBCF5001F11E05FEA4C0C34BFBCF104
:101FF0007F5F2EE05FEA9C0C4FEA0C1C4FEA3C0C22
:10200000C10071F100414CEB50707047C90241EAC8
:102010005051C00218BF41F0010141F000414FEAA8
:102020006C50C0F10900212810D240EACC7CCCF1E0
:10203000200C11FA0CF070F10040CCF1200C21FAC8
:102040000CF00CF0004C40EB0C0070474FEACC70E9
:102050007047490011F5001F04D84FEACC10FF303B
:10206000C0057047C81770475FF0FF0C1CEAD051DD
:1020700014BF614506E0C110400721F0E04101F1C5
:102080006051704779B900F0004100020AD0B0FAFF
:1020900080FC00FA0CF001F16051A1EB0C5101EB56
:1020A000D0214005704741020CBF40F4E0016FF0C1
:1020B000000100207047000083B582B09DED020B47
:1020C0008DED000BDDE90023C3F30A5140F2FF72EE
:1020D000914208D0002904BF190350EA113011D1F0
:1020E000104905B000BD190350EA113011D1039811
:1020F00000284CBF9FED090B9DED020B51EC100B1E
:1021000005B000BD002000900022064B02A800F0A0
:102110004BFCDDE9020105B000BD0000000000003D
:10212000000000000000F03F80B551EC100BFFF7FD
:10213000C3FF41EC100B01BD01684FF6FE72114068
:1021400001600021016041608160C160334A34490F
:1021500090421DD0334A904221D0334A904225D03C
:10216000324A904229D0324A90422DD0314A904290
:1021700003D1086840F4700029E02F4A904203D14F
:10218000086840F0706022E02C4A2D49904203D14B
:10219000086840F00F001AE02A4A904203D108680C
:1021A00040F0F00013E0284A904203D1086840F460
:1021B00070600CE0254A904203D1086840F47040FA
:1021C00005E0234A904203D1086840F4702008607B
:1021D000704702688B686FF30E121A430B6A1A433A
:1021E0000B691A434B691A438B691A43CB691A432B
:1021F0004B6A1A438B6A1A4302608A8942600A68F2
:1022000082604968C16070470029016812BF41F0CF
:1022100001014FF6FE721140016070470800024054
:10222000040002401C000240300002404400024012
:10223000580002406C000240800002400804024046
:10224000040402401C0402403004024044040240E2
:102250005804024080B50C49884208D101214FF052
:102260000050FFF748F900214FF0005007E001212E
:102270004FF08060FFF73FF900214FF08060BDE82C
:102280000440FFF738B900000074004030B503681F
:10229000556840F6FE748C40A34314682C4395683F
:1022A000D2682C43224302FA01F11943016030BD88
:1022B0000123002A026803FA01F114BF114322EA44
:1022C00001010160704781B0002300930090083144
:1022D000FFE70098081800900098026001B070476E
:1022E000F0B5002201230C6893401C409C4228D189
:1022F00054000325A5400E79ED43012E18BF022E90
:1023000010D186682E40866086684F79A7403E438C
:102310008660868826EA0303838083888E799640C8
:102320003343838003682B40036003680E79A64023
:1023300033430360C3682B40CD7905FA04F423438B
:10234000C360521C102ACDD3F0BD008A002208427F
:1023500018BF01221046704710B5CB0800EB830070
:1023600001F007018900036A0F248C40A343036234
:1023700002FA01F1036A1943016210BD114A0021FA
:10238000115070470F4A101802680B6802F00302E0
:102390001A434B681A438B681A430B691A43CB687C
:1023A0001A434B6989691A43114301607047054A12
:1023B00010180029016812BF41F0010149084900C5
:1023C000016070471C00014070B50378C4781A465C
:1023D0000121E4B1124B1B68447803F4E063C3F5B8
:1023E000E0631B0AC3F10405AC4085780F2626FA8A
:1023F00003F32B4023430B4C1B011355007800F0D3
:102400001F029140084A400942F8201070BD03F0B5
:102410001F0001FA00F05109044A42F8210070BD82
:102420000CED00E000E400E000E100E080E100E00D
:10243000C268DFF8B0321A400B681A434B681A437F
:102440008B681A43CB681A430B691A434B691A43CA
:102450008B691A43C260026B097F1209491E41EA67
:102460000211016370470021016041608160C16019
:10247000016141618161012101777047C26C0A7A73
:102480000B68521E1A434B681A43CB6842EA032278
:102490000B6942EA83324B69896942EA035242EA94
:1024A0008161C164704700210160416001210172B6
:1024B000C1600161416181617047F0B5DFF8282298
:1024C000DFF82852DFF82832DFF81442B0F1A04FCD
:1024D00016BFA04216681E6835400E684F683E431E
:1024E0008F683E43CF68097C46EA073646EA0121F9
:1024F0002943B0F1A04F18BFA04201D11160F0BD37
:102500001960F0BD0029816814BF41F0010141F05C
:10251000020181607047816841F00041816070472D
:10252000D0F8B4007047826822F0804282608268EE
:102530001143816070478068C00F70478068400811
:102540007DE0826822F0405282600029816814BFD9
:1025500041F0805141F0005181607047B0F1A04FCF
:102560001BBF5F4A9042604861480029016819BF5B
:1025700041F48001016021F4800101607047F0B5F1
:1025800006271F25052A0ADA12FB07F2066B95407B
:1025900026EA050501FA02F22A43026326E00A2A26
:1025A0000BDA521F12FB07F2466B954026EA05052F
:1025B00001FA02F22A43426318E00F2A0BDA0A3AC0
:1025C00012FB07F2866B954026EA050501FA02F236
:1025D0002A4382630AE00F3A12FB07F2C66B95406A
:1025E00026EA050501FA02F22A43C2630A290EDB34
:1025F0000A398269826901EB410107248C40A243B8
:10260000826103FA01F1826911438161F0BD3824CE
:10261000426942694D1E05EB4505AC40A24342614B
:1026200001EB4101426903FA01F111434161F0BD3F
:10263000816841F00401816070478068800800F083
:1026400001007047006C80B2704730B50A290DDB7D
:102650000A3901EB4101836907248C40A34383615C
:1026600002FA01F183691943816130BD4D1E43694E
:10267000382405EB4505AC40A343436101EB410120
:10268000436902FA01F11943416130BD816841F0AB
:10269000080181607047816841F0200181607047C6
:1026A00081B0002200920090890000987C310818C7
:1026B00000900098006880B201B07047002A42681C
:1026C00014BF114322EA01014160704700680022F3
:1026D000084218BF01221046704701607047000091
:1026E0000001005007C0FFFD08030050E010FCFF90
:1026F000080700500160704730B501F0030221F077
:102700000301064B9200CC580F259540AC43CC50AA
:102710009040CC582043C85030BD00000800014014
:10272000F0B50268012102F01F0301FA03F3DC4354
:1027300085795309374A002D58D002EB43131D68A1
:102740002C401C600368344D5C0905EB441403F015
:102750001F03256801FA03F325EA030323600468D5
:102760000379650903EB4513D31804F01F041D68B2
:1027700001FA04F42C431C60284B0468650903EB40
:10278000451504F01F042E6801FA04F426EA040437
:102790002C600568224C6E0904EB461605F01F05F7
:1027A000376801FA05F527EA0505356005684779B8
:1027B00005F01F066D096D0101FA06F6102F0FD105
:1027C0005A191368334313600068420904EB42123C
:1027D00000F01F00136801FA00F018431060F0BD0C
:1027E00055FA87F013181868304305E0007900EBBC
:1027F00043101318186820401860F0BD00BF012175
:1028000000F01F02914040094001064A11507047F4
:1028100000000000000401400404014008040140DD
:102820000C0401401404014070B44FF0004591EADB
:10283000030F44BF6B40FFF763BA00BF841A71EB0C
:10284000030604D26E40001BB141121973414FF4CC
:10285000001C1CEB410F34BF7CEB430684E00C0DE5
:10286000A4EB1356362E7DDC012E43DC45EAC32350
:1028700043EA525312BFD20292025B08240545EA92
:10288000C12141EA5051D2EBC020994125D407D152
:10289000B0FA80F610FA06F164D00020203608E085
:1028A000B1FA81F6B140C6F1200220FA02F21143DA
:1028B000B0404FEAF474B4EB465434F001064FEAEA
:1028C00074040AD8D6F50016760D04F00044F040E2
:1028D00061FA06F25040F1404840C00A40EA4150D7
:1028E00021F0004128BF5FEA500550F1000044EBA1
:1028F000D12137E045EAC323DB0A45EAC121C90AF1
:10290000B6F120050EDD42EA0242120CC5F12006A6
:1029100003FA06F6EB4042EA06056D42984161F182
:1029200000010DE062FA06F5F240554063FA06FC3C
:1029300082EA0C02F3405A406D42904161EB030180
:1029400011F4801F05D1641E620502D06D00404164
:10295000494121F48011430875F1004350F1000012
:1029600041EB045170BC70471CEB410F15D223F0B2
:10297000004352EA43060BD04FEA4C0CBCEB410F2C
:1029800004D80C0D661E342EB7DDEBE7801A994192
:1029900050EA410608BF0021E4E708BF1CEB430FE3
:1029A00028BF6FF00001DDE72DE9704C04462DEDE6
:1029B000088BD4E9000143EC182B00F054F90646CB
:1029C00051EC180B00F04FF90E9D310006D5002890
:1029D0004AD4022805D184ED008B40E1022EF8D1C3
:1029E00021E050B9D4E900010022334B00F05CF93A
:1029F0000FD084ED008B002031E1012815D1D4E9FE
:102A0000000100222D4B00F04FF918BF84ED008B20
:102A100050D100F059F9212101604FF0FF306FF0E3
:102A20000041C4E90001022019E17EB984ED008B68
:102A30002946204600F04EF9040018BF012C40F052
:102A40000D8100F041F92221016007E1D4E9000184
:102A50000022194B00F028F90FD151EC180BFFF7A9
:102A6000E9F9C4E9000125E094ED009B144B51EC19
:102A7000190B0022FFF7C6F90BD251EC180B0023FB
:102A8000FFF7D8F9C4E90001BDEC088B0020BDE8D0
:102A9000708C01220B4BFFF79DF915D851EC180BE8
:102AA0000022054BFFF7C6F9C4E9000100F00CF95C
:102AB000222101600120D2E00000F07F0000F0FF41
:102AC00000C89CC000C89C40384A394BFFF7B2F997
:102AD00000220023FFF796F934BF9FED360B9FEDE0
:102AE000370B53EC102BFFF701F900F07DF9064688
:102AF00000F0A0F941EC1A0B4FF07842314BFFF790
:102B000099F902460B4651EC190BFFF78DFE8246F0
:102B10008B4653EC1A2B2C482C49FFF78BF90246B5
:102B20000B4650465946FFF77FFE6FF00102284BD7
:102B3000FFF750F941EC190B05D80022254BFFF7A0
:102B400061F9C0F07D8053EC192BFFF773F941EC6C
:102B50001A0B214A214BFFF76DF9214A214BFFF750
:102B6000C5F853EC1A2BFFF765F91F4A1F4B41ECD0
:102B70001B0B51EC1A0BFFF75DF91D4A1D4BFFF7BC
:102B8000B5F853EC1A2BFFF755F91B4B0022FFF752
:102B9000ADF853EC192BFFF74DF941EC190B9FEDF4
:102BA00001AB2BE0000000000000F03FFE822B652F
:102BB0004715F73F000000000000E0BF00000000E4
:102BC0000000E03F422EE63FF2E4D5BCE7E84B3E92
:102BD000FFFF8FBC0000903C112E5781A03F503F5B
:102BE0005843128C8F71BC3F4BE8A541B752013F4F
:102BF0000BBDF3DAE8708C3F0000E03F51EC1B0B9B
:102C000053EC192BFFF772F853EC1A2BFFF76EF801
:102C100082468B4651EC1B0B53EC192BFFF704FE3D
:102C200053EC1A2BFFF762F802460B465046594602
:102C300000F016F953EC182BFFF7FCF841EC180BD9
:102C400084ED008BA919204600F044F8040018BF59
:102C5000012C03D100F038F8222101602046BDECA0
:102C6000088BBDE8708C03B4DDE90023C3F30A517F
:102C700040F2FF72914206D001B10CE0190350EA14
:102C8000113006D00BE0190350EA113014BF0220B6
:102C9000012002B070474FF0FF3002B070476FF074
:102CA000010002B07047000090420CD141EA030CD1
:102CB00050EA4C0C07D0994205D14FF4001C1CEB94
:102CC000410F38BF89427047014800F0ECB900005D
:102CD000C001002070B504460D466068C0F30A507C
:102CE00040F2FF71884207D16068000304BF20688A
:102CF000002817D0022070BD20B9204600F0D4F97A
:102D0000012867DA012D0FDB40F2FF71091A8D42AD
:102D10000AD3606800284CBF9FED2F0B9FED300B4E
:102D200084ED000B012070BD4142A942616806DAC2
:102D30006FF31E51401941EA0050606041E0401EAF
:102D400063680122451962F31F5305F1350001F054
:102D500000416360352803D361600020206070BDAE
:102D6000002215F11F0F04DA2268236000202035AD
:102D70006060684213D0521E25689241C0F1200362
:102D8000D2439D4045EAD27225686668C54006FA7E
:102D900003F32B432360636823FA00F060606068EC
:102DA00008436060B2F1004F03D80DD12078C0070E
:102DB0000AD52068401C2060206828B96068401C43
:102DC00060604FF0FF3070BD6068884204BF2068CB
:102DD0000028F6D1002070BD000000000000F0FFC8
:102DE000000000000000F07FF446400D40EAC120E2
:102DF000490006D200F00EF8004248BF6FF00040D4
:102E0000604700F007F84FF0004188428CBF084649
:102E10004042604740F00040490DA1F58061491CE7
:102E200005D4D1F11F0154BFC840C01770474FF0FF
:102E300000007047010040F10780F446404200F076
:102E400003F851F00041604709D0B0FA80F18840A2
:102E5000C91CC1F58461090501EBD021400570470B
:102E6000F0B540F2FF7581EA030C0CF0004C15EA56
:102E700011541DBF15EA1357AC42AF42E5E0BC4107
:102E8000C1F31301C3F31303801A994143F4801370
:102E900004D2641E4000494180185941C90241EAE8
:102EA0005051B1FBF3F603FB1611A2FB0675D7EBED
:102EB000C020A94102D2761E80185941C90241EAB8
:102EC0005051B1FBF3FE03FB1E11A2FB0E75D7EBB5
:102ED000C020A94103D2AEF1010E801859418902E8
:102EE00041EA9051760546EA8E2EB1FBF3F603FBDC
:102EF0001611A2FB0675D7EB8020A94102D2761EDF
:102F000080185941C90241EA50514EEA060EB1FB00
:102F1000F3F603FB1611A2FB0675D7EBC020A941FF
:102F200002D2761E80185941C90241EA5051B1FBC4
:102F3000F3F703FB1711A2FB0735D3EBC020A94120
:102F400067F100070CBF004247F0010766F3D52781
:102F50004FEA1E31B80814F5806412DDBD0775F123
:102F6000004250EB0E5051EB045111F5801F5CBF35
:102F700041EA0C01F0BD4CF07F6141F0E0410020DE
:102F8000F0BDBD076D0840EA0E5041F48011D4F148
:102F90000104B4F120060ADAC4F120060200E04080
:102FA00001FA06F3E1401843B24015430EE0342C19
:102FB00013DCC6F1200445EA40056D0820FA06F24C
:102FC000154321FA06F0A1400D43002175F100429E
:102FD00050F1000051EB0C01F0BD00205FEA0C0144
:102FE000F0BDCFB992185B41B3FA83F704BFB2FAD0
:102FF00082F6BF190B3FB7F120062FBF02FA06F386
:10300000BB40C7F1200622FA06F638BF3343BA4068
:103010001CB1E419641E33E77F4231F00041B1FA7C
:1030200081F404BFB0FA80F6A4190B3CB4F1200679
:103030002FBF00FA06F1A140C4F1200620FA06F6DF
:1030400038BF3143A0403C1B1AE7AC421ABF05EA27
:103050001357AF4212E050EA41061CBF52EA430642
:10306000BFE750EA4107304661461CBF41EA0551BF
:10307000F0BD52EA430C08BFC143F0BD00204FF43D
:10308000001616EB410F98BF16EB430F08BF16EB67
:10309000410F24BFC14305E016EB430F0CBF61464F
:1030A0004CEA0551F0BD704730B4436803F000426C
:1030B00001211B031B0B436004BF0368002B08D1D5
:1030C0000DE00368DD0F45EA440444605B000360E3
:1030D000491E4468E302F4D523031B0B4360436895
:1030E0001A434260084630BC704700007047FEE754
:1030F000FEE7FEE7FEE770477047704710B5FEF742
:1031000062F87648027876480178012A24D142781C
:10311000521C4270D2B2052A1EDB00224270714C52
:10312000714A1388236083786BB9491CC9B21F297F
:1031300012DB13882033138000211288B2F5247F1C
:103140000ADB012207E013885B1E13801288B2F5A8
:10315000807F01DC00228270017010BD80B54021AB
:103160004FF0A040FFF7B2FAB8B1022201215F4848
:10317000FEF717FB01214FF0A040FFF791FA5C49E1
:10318000086002214FF0A040FFF78AFA5949086011
:1031900040214FF0A040FFF7ADFABDE802404FF0EC
:1031A000A040FFF778BA10B50120FEF7E8F9022039
:1031B000FEF7E5F9504901200880504800880028B2
:1031C0003AD14F494F4C012008700020FEF72FFAEA
:1031D00001280DD1641EF8D100204B490870FFF77B
:1031E0000DFB4A480278511E8941C90F017010BD7C
:1031F0004FF48C7244480178491C017040F6E44455
:1032000043490A60F0224A60C8228A604FF4B472CF
:10321000CA604FF4A0720A61002251F822301B03E9
:10322000B3FBF4F341F82230521C052AF5D30178A0
:103230000429A4BF01210170BDE810400020FFF760
:10324000DDBA80B53348008850B133480088012882
:1032500004D0022808BFFDF747FF01E0FDF732FF69
:10326000BDE80840102200212048FEF79ABA10B5A8
:103270004FF400311D48FEF7A5FA2848284C90ED80
:10328000000AD0ED000A2748274BBCEEC00A10EE1A
:10329000101AB8EE400A70EEC00AB2EE001A60EEE4
:1032A000810AC0ED000AFCEEE00A10EE902A2078B8
:1032B00003EB021232F8100020B1481C00EE100A95
:1032C000B8EE400AFDF761FB2078401C20702078A2
:1032D0000828A4BF0020207010BD000007010020B6
:1032E0001C0200201C7601400C00002000740140EC
:1032F0006C00002070000020120000200801002057
:103300000501002040420F000601002004010020BA
:103310005800002016000020140000207801002032
:103320001F02002018020020840000203648374A7F
:1033300082B0016841F4700101603548016841F0D4
:1033400001010160416811404160324A0168114049
:103350000160314A016821F480210160C16A0909D4
:103360000901C162016B114001630021816001917B
:103370000091016841F480310160016841F48021CD
:103380000160016801F4003100910199491C01912B
:10339000009919B90199B1F5A04FF2D10168490C12
:1033A00001F0010100910099012907D1416821F440
:1033B0007C114160416841F4E81141601221174AD3
:1033C00011604168416041684160416841F4806139
:1033D0004160016841F08071016001688901FCD59C
:1033E0004168890889004160416841F002014160FB
:1033F000416801F00C010829FAD14FF0006008493A
:10340000086002B07047000088ED00E00CC0C00802
:1034100000100240FFFFF6FECCFEF0FF002002404D
:1034200008ED00E0816807E00268116853688918B8
:103430005B18C36008320260C2689142F4D04A1C33
:103440008260087870472DE9FF4D00F10801009176
:1034500000270168009A490802EBC1010191B846B2
:103460000021029103910168490800EBC101406805
:1034700000F0010501F10804400804EBC00631E04A
:1034800000A8FFF7CFFF4FFA80FA0AE00098016822
:1034900008180099029049680818039000980830AD
:1034A0000090029803998842F0D0401C029010F8D6
:1034B00001BD47450CD1B44208BF00F01DF8276894
:1034C00005B14F44606800EB070808344745F2D067
:1034D00007F801BBBAF1000F0AD51AF1010AE8D1C9
:1034E0004745CDD1B442CBD1304604B0BDE8F08DD4
:1034F000BAF1010AD5D5F3E7012000F001B80000C8
:1035000080B5C046C046024A11001820ABBEFBE79A
:103510002600020010B5074979441831064C7C4456
:10352000163404E00A68081D511888470146A14274
:10353000F8D110BD08000000300000003FE1FFFF9F
:103540005C000000C401002000000000FBFEFFFF43
:10355000020000000200000030010000CB0000006B
:1035600000000020C40100004EF68851CEF2000198
:10357000086840F4700008604FF00070E1EE100A37
:103580007047000000F00BF8002801D0FFF7C2FFE1
:103590000020C046C046FCF7F7FD00F002F801200D
:1035A000704700F001B8000007463846FFF7A8FF53
:1035B000FBE7000001488047014800472D33000821
:1035C000C5350008C046C046FFF7CEFFFFF7DAFF5B
:1035D000FFF7FEBFFFF7FEBFFFF7FEBFFFF7FEBF1F
:1035E000FFF7FEBFFFF7FEBFFFF7FEBFFFF7FEBF0F
:1035F000FFF7FEBFFFF7FEBFFFF7FEBFFFF7FEBFFF
:10360000FFF7FEBFFFF7FEBFFFF7FEBFFFF7FEBFEE
:10361000FFF7FEBFFFF7FEBFFFF7FEBFFFF7FEBFDE
:10362000FFF7FEBFFFF7FEBFFFF7FEBFFFF7FEBFCE
:10363000FFF7FEBFFFF7FEBFFFF7FEBFFFF7FEBFBE
:10364000FFF7FEBFFFF7FEBFFFF7FEBFFFF7FEBFAE
:10365000FFF7FEBFFFF7FEBFFFF7FEBFFFF7FEBF9E
:10366000FFF7FEBFFFF7FEBFFFF7FEBFFFF7FEBF8E
:10367000FFF7FEBFFFF7FEBFFFF7FEBFFFF7FEBF7E
:10368000FFF7FEBFFFF7FEBFF3000001FA000201E3
:103690000001BF000418010000F0FD0000C8FD009B
:1036A00005680100004001EB0002408813E00000C3
:1036B00001F9000001F9000001FB000001FB00001E
:1036C00001FD000001FD000001FD000001FD000002
:1036D00001FD000001FD000001FD0002010001FDEF
:1036E0000002010001FD00040100010001FD0004D1
:1036F0000100010001FD00100100010001000100B6
:10370000010001000100000101930001409CFD0047
:1037100002401C44FC0023010203040102030406CE
:10372000070809010002000400060008000A000C56
:103730000010002000400080000001F7000E04008F
:1037400048000400480004004800040048FD000050
:0337500048FC0032
:04000005080035C5F5
:00000001FF
